{"abi":[{"type":"constructor","inputs":[],"stateMutability":"nonpayable"},{"type":"function","name":"decrement","inputs":[],"outputs":[],"stateMutability":"nonpayable"},{"type":"function","name":"getCount","inputs":[],"outputs":[{"name":"","type":"uint256","internalType":"uint256"}],"stateMutability":"view"},{"type":"function","name":"increment","inputs":[],"outputs":[],"stateMutability":"nonpayable"},{"type":"event","name":"CountDecremented","inputs":[{"name":"newCount","type":"uint256","indexed":false,"internalType":"uint256"}],"anonymous":false},{"type":"event","name":"CountIncremented","inputs":[{"name":"newCount","type":"uint256","indexed":false,"internalType":"uint256"}],"anonymous":false}],"bytecode":{"object":"0x608060405234801561000f575f80fd5b505f8055610221806100205f395ff3fe608060405234801561000f575f80fd5b506004361061003f575f3560e01c80632baeceb714610043578063a87d942c1461004d578063d09de08a14610061575b5f80fd5b61004b610069565b005b5f5460405190815260200160405180910390f35b61004b61014a565b5f8054116100fc576040517f08c379a0000000000000000000000000000000000000000000000000000000008152602060048201526024808201527f436f756e7465723a2063616e6e6f742064656372656d656e742062656c6f772060448201527f7a65726f00000000000000000000000000000000000000000000000000000000606482015260840160405180910390fd5b60015f8082825461010d91906101bf565b90915550505f546040519081527f36bd77efe73a0782b8356dfffe895475b0a548122d84fdd60264949e18af9506906020015b60405180910390a1565b60015f8082825461015b91906101d8565b90915550505f546040519081527f420680a649b45cbb7e97b24365d8ed81598dce543f2a2014d48fe328aa47e8bb90602001610140565b7f4e487b71000000000000000000000000000000000000000000000000000000005f52601160045260245ffd5b818103818111156101d2576101d2610192565b92915050565b808201808211156101d2576101d261019256fea2646970667358221220f17414c377771e8ca76c160cf48f1059943debc66dc5d689e8e7063b054bb5b164736f6c63430008180033","linkReferences":{}},"methodIdentifiers":{"decrement()":"2baeceb7","getCount()":"a87d942c","increment()":"d09de08a"},"id":0}